{
  "_format": "hh-sol-artifact-1",
  "contractName": "ArtTokenTest",
  "sourceName": "contracts/ArtToken.sol",
  "abi": [
    {
      "inputs": [
        {
          "internalType": "address",
          "name": "initialOwner",
          "type": "address"
        },
        {
          "internalType": "address[]",
          "name": "initialAddresses",
          "type": "address[]"
        }
      ],
      "stateMutability": "nonpayable",
      "type": "constructor"
    },
    {
      "inputs": [
        {
          "internalType": "address",
          "name": "spender",
          "type": "address"
        },
        {
          "internalType": "uint256",
          "name": "allowance",
          "type": "uint256"
        },
        {
          "internalType": "uint256",
          "name": "needed",
          "type": "uint256"
        }
      ],
      "name": "ERC20InsufficientAllowance",
      "type": "error"
    },
    {
      "inputs": [
        {
          "internalType": "address",
          "name": "sender",
          "type": "address"
        },
        {
          "internalType": "uint256",
          "name": "balance",
          "type": "uint256"
        },
        {
          "internalType": "uint256",
          "name": "needed",
          "type": "uint256"
        }
      ],
      "name": "ERC20InsufficientBalance",
      "type": "error"
    },
    {
      "inputs": [
        {
          "internalType": "address",
          "name": "approver",
          "type": "address"
        }
      ],
      "name": "ERC20InvalidApprover",
      "type": "error"
    },
    {
      "inputs": [
        {
          "internalType": "address",
          "name": "receiver",
          "type": "address"
        }
      ],
      "name": "ERC20InvalidReceiver",
      "type": "error"
    },
    {
      "inputs": [
        {
          "internalType": "address",
          "name": "sender",
          "type": "address"
        }
      ],
      "name": "ERC20InvalidSender",
      "type": "error"
    },
    {
      "inputs": [
        {
          "internalType": "address",
          "name": "spender",
          "type": "address"
        }
      ],
      "name": "ERC20InvalidSpender",
      "type": "error"
    },
    {
      "inputs": [
        {
          "internalType": "address",
          "name": "owner",
          "type": "address"
        }
      ],
      "name": "OwnableInvalidOwner",
      "type": "error"
    },
    {
      "inputs": [
        {
          "internalType": "address",
          "name": "account",
          "type": "address"
        }
      ],
      "name": "OwnableUnauthorizedAccount",
      "type": "error"
    },
    {
      "anonymous": false,
      "inputs": [
        {
          "indexed": true,
          "internalType": "address",
          "name": "owner",
          "type": "address"
        },
        {
          "indexed": true,
          "internalType": "address",
          "name": "spender",
          "type": "address"
        },
        {
          "indexed": false,
          "internalType": "uint256",
          "name": "value",
          "type": "uint256"
        }
      ],
      "name": "Approval",
      "type": "event"
    },
    {
      "anonymous": false,
      "inputs": [
        {
          "indexed": true,
          "internalType": "address",
          "name": "previousOwner",
          "type": "address"
        },
        {
          "indexed": true,
          "internalType": "address",
          "name": "newOwner",
          "type": "address"
        }
      ],
      "name": "OwnershipTransferred",
      "type": "event"
    },
    {
      "anonymous": false,
      "inputs": [
        {
          "indexed": true,
          "internalType": "address",
          "name": "from",
          "type": "address"
        },
        {
          "indexed": true,
          "internalType": "address",
          "name": "to",
          "type": "address"
        },
        {
          "indexed": false,
          "internalType": "uint256",
          "name": "value",
          "type": "uint256"
        }
      ],
      "name": "Transfer",
      "type": "event"
    },
    {
      "inputs": [
        {
          "internalType": "address",
          "name": "owner",
          "type": "address"
        },
        {
          "internalType": "address",
          "name": "spender",
          "type": "address"
        }
      ],
      "name": "allowance",
      "outputs": [
        {
          "internalType": "uint256",
          "name": "",
          "type": "uint256"
        }
      ],
      "stateMutability": "view",
      "type": "function"
    },
    {
      "inputs": [
        {
          "internalType": "address",
          "name": "spender",
          "type": "address"
        },
        {
          "internalType": "uint256",
          "name": "value",
          "type": "uint256"
        }
      ],
      "name": "approve",
      "outputs": [
        {
          "internalType": "bool",
          "name": "",
          "type": "bool"
        }
      ],
      "stateMutability": "nonpayable",
      "type": "function"
    },
    {
      "inputs": [
        {
          "internalType": "address",
          "name": "account",
          "type": "address"
        }
      ],
      "name": "balanceOf",
      "outputs": [
        {
          "internalType": "uint256",
          "name": "",
          "type": "uint256"
        }
      ],
      "stateMutability": "view",
      "type": "function"
    },
    {
      "inputs": [],
      "name": "decimals",
      "outputs": [
        {
          "internalType": "uint8",
          "name": "",
          "type": "uint8"
        }
      ],
      "stateMutability": "view",
      "type": "function"
    },
    {
      "inputs": [],
      "name": "maxSupply",
      "outputs": [
        {
          "internalType": "uint256",
          "name": "",
          "type": "uint256"
        }
      ],
      "stateMutability": "view",
      "type": "function"
    },
    {
      "inputs": [
        {
          "internalType": "address",
          "name": "to",
          "type": "address"
        },
        {
          "internalType": "uint256",
          "name": "amount",
          "type": "uint256"
        }
      ],
      "name": "mint",
      "outputs": [],
      "stateMutability": "nonpayable",
      "type": "function"
    },
    {
      "inputs": [],
      "name": "name",
      "outputs": [
        {
          "internalType": "string",
          "name": "",
          "type": "string"
        }
      ],
      "stateMutability": "view",
      "type": "function"
    },
    {
      "inputs": [],
      "name": "owner",
      "outputs": [
        {
          "internalType": "address",
          "name": "",
          "type": "address"
        }
      ],
      "stateMutability": "view",
      "type": "function"
    },
    {
      "inputs": [],
      "name": "renounceOwnership",
      "outputs": [],
      "stateMutability": "nonpayable",
      "type": "function"
    },
    {
      "inputs": [],
      "name": "symbol",
      "outputs": [
        {
          "internalType": "string",
          "name": "",
          "type": "string"
        }
      ],
      "stateMutability": "view",
      "type": "function"
    },
    {
      "inputs": [],
      "name": "totalSupply",
      "outputs": [
        {
          "internalType": "uint256",
          "name": "",
          "type": "uint256"
        }
      ],
      "stateMutability": "view",
      "type": "function"
    },
    {
      "inputs": [
        {
          "internalType": "address",
          "name": "to",
          "type": "address"
        },
        {
          "internalType": "uint256",
          "name": "value",
          "type": "uint256"
        }
      ],
      "name": "transfer",
      "outputs": [
        {
          "internalType": "bool",
          "name": "",
          "type": "bool"
        }
      ],
      "stateMutability": "nonpayable",
      "type": "function"
    },
    {
      "inputs": [
        {
          "internalType": "address",
          "name": "from",
          "type": "address"
        },
        {
          "internalType": "address",
          "name": "to",
          "type": "address"
        },
        {
          "internalType": "uint256",
          "name": "value",
          "type": "uint256"
        }
      ],
      "name": "transferFrom",
      "outputs": [
        {
          "internalType": "bool",
          "name": "",
          "type": "bool"
        }
      ],
      "stateMutability": "nonpayable",
      "type": "function"
    },
    {
      "inputs": [
        {
          "internalType": "address",
          "name": "newOwner",
          "type": "address"
        }
      ],
      "name": "transferOwnership",
      "outputs": [],
      "stateMutability": "nonpayable",
      "type": "function"
    }
  ],
  "bytecode": "0x6080604052620000126012600a6200050c565b6200002190620f424062000524565b6006553480156200003157600080fd5b506040516200115038038062001150833981016040819052620000549162000571565b816040518060400160405280600c81526020016b105c9d151bdad95b95195cdd60a21b8152506040518060400160405280600381526020016210549560ea1b8152508160039081620000a79190620006e9565b506004620000b68282620006e9565b5050506001600160a01b038116620000e957604051631e4fbdf760e01b8152600060048201526024015b60405180910390fd5b620000f48162000234565b506000815111620001485760405162461bcd60e51b815260206004820152601560248201527f4e6f206164647265737365732070726f766964656400000000000000000000006044820152606401620000e0565b6000620001586012600a6200050c565b6200016790620186a062000524565b90506006548251826200017b919062000524565b6002546200018a9190620007b5565b1115620001da5760405162461bcd60e51b815260206004820152601f60248201527f496e697469616c206d696e742065786365656473206d617820737570706c79006044820152606401620000e0565b60005b82518110156200022a5762000215838281518110620002005762000200620007cb565b6020026020010151836200028660201b60201c565b806200022181620007e1565b915050620001dd565b50505050620007fd565b600580546001600160a01b038381166001600160a01b0319831681179093556040519116919082907f8be0079c531659141344cd1fd0a4f28419497f9722a3daafe3b4186f6b6457e090600090a35050565b6001600160a01b038216620002b25760405163ec442f0560e01b815260006004820152602401620000e0565b620002c060008383620002c4565b5050565b6001600160a01b038316620002f3578060026000828254620002e79190620007b5565b90915550620003679050565b6001600160a01b03831660009081526020819052604090205481811015620003485760405163391434e360e21b81526001600160a01b03851660048201526024810182905260448101839052606401620000e0565b6001600160a01b03841660009081526020819052604090209082900390555b6001600160a01b0382166200038557600280548290039055620003a4565b6001600160a01b03821660009081526020819052604090208054820190555b816001600160a01b0316836001600160a01b03167fddf252ad1be2c89b69c2b068fc378daa952ba7f163c4a11628f55a4df523b3ef83604051620003ea91815260200190565b60405180910390a3505050565b634e487b7160e01b600052601160045260246000fd5b600181815b808511156200044e578160001904821115620004325762000432620003f7565b808516156200044057918102915b93841c939080029062000412565b509250929050565b600082620004675750600162000506565b81620004765750600062000506565b81600181146200048f57600281146200049a57620004ba565b600191505062000506565b60ff841115620004ae57620004ae620003f7565b50506001821b62000506565b5060208310610133831016604e8410600b8410161715620004df575081810a62000506565b620004eb83836200040d565b8060001904821115620005025762000502620003f7565b0290505b92915050565b60006200051d60ff84168362000456565b9392505050565b8082028115828204841417620005065762000506620003f7565b80516001600160a01b03811681146200055657600080fd5b919050565b634e487b7160e01b600052604160045260246000fd5b600080604083850312156200058557600080fd5b62000590836200053e565b602084810151919350906001600160401b0380821115620005b057600080fd5b818601915086601f830112620005c557600080fd5b815181811115620005da57620005da6200055b565b8060051b604051601f19603f830116810181811085821117156200060257620006026200055b565b6040529182528482019250838101850191898311156200062157600080fd5b938501935b828510156200064a576200063a856200053e565b8452938501939285019262000626565b8096505050505050509250929050565b600181811c908216806200066f57607f821691505b6020821081036200069057634e487b7160e01b600052602260045260246000fd5b50919050565b601f821115620006e457600081815260208120601f850160051c81016020861015620006bf5750805b601f850160051c820191505b81811015620006e057828155600101620006cb565b5050505b505050565b81516001600160401b038111156200070557620007056200055b565b6200071d816200071684546200065a565b8462000696565b602080601f8311600181146200075557600084156200073c5750858301515b600019600386901b1c1916600185901b178555620006e0565b600085815260208120601f198616915b82811015620007865788860151825594840194600190910190840162000765565b5085821015620007a55787850151600019600388901b60f8161c191681555b5050505050600190811b01905550565b80820180821115620005065762000506620003f7565b634e487b7160e01b600052603260045260246000fd5b600060018201620007f657620007f6620003f7565b5060010190565b610943806200080d6000396000f3fe608060405234801561001057600080fd5b50600436106100ea5760003560e01c8063715018a61161008c578063a9059cbb11610066578063a9059cbb146101cd578063d5abeb01146101e0578063dd62ed3e146101e9578063f2fde38b1461022257600080fd5b8063715018a6146101a25780638da5cb5b146101aa57806395d89b41146101c557600080fd5b806323b872dd116100c857806323b872dd14610142578063313ce5671461015557806340c10f191461016457806370a082311461017957600080fd5b806306fdde03146100ef578063095ea7b31461010d57806318160ddd14610130575b600080fd5b6100f7610235565b604051610104919061078d565b60405180910390f35b61012061011b3660046107f7565b6102c7565b6040519015158152602001610104565b6002545b604051908152602001610104565b610120610150366004610821565b6102e1565b60405160128152602001610104565b6101776101723660046107f7565b610305565b005b61013461018736600461085d565b6001600160a01b031660009081526020819052604090205490565b61017761037b565b6005546040516001600160a01b039091168152602001610104565b6100f761038f565b6101206101db3660046107f7565b61039e565b61013460065481565b6101346101f736600461087f565b6001600160a01b03918216600090815260016020908152604080832093909416825291909152205490565b61017761023036600461085d565b6103ac565b606060038054610244906108b2565b80601f0160208091040260200160405190810160405280929190818152602001828054610270906108b2565b80156102bd5780601f10610292576101008083540402835291602001916102bd565b820191906000526020600020905b8154815290600101906020018083116102a057829003601f168201915b5050505050905090565b6000336102d58185856103ea565b60019150505b92915050565b6000336102ef8582856103fc565b6102fa85858561047a565b506001949350505050565b61030d6104d9565b6006548161031a60025490565b61032491906108ec565b111561036d5760405162461bcd60e51b815260206004820152601360248201527213585e081cdd5c1c1b1e48195e18d959591959606a1b60448201526064015b60405180910390fd5b6103778282610506565b5050565b6103836104d9565b61038d600061053c565b565b606060048054610244906108b2565b6000336102d581858561047a565b6103b46104d9565b6001600160a01b0381166103de57604051631e4fbdf760e01b815260006004820152602401610364565b6103e78161053c565b50565b6103f7838383600161058e565b505050565b6001600160a01b038381166000908152600160209081526040808320938616835292905220546000198114610474578181101561046557604051637dc7a0d960e11b81526001600160a01b03841660048201526024810182905260448101839052606401610364565b6104748484848403600061058e565b50505050565b6001600160a01b0383166104a457604051634b637e8f60e11b815260006004820152602401610364565b6001600160a01b0382166104ce5760405163ec442f0560e01b815260006004820152602401610364565b6103f7838383610663565b6005546001600160a01b0316331461038d5760405163118cdaa760e01b8152336004820152602401610364565b6001600160a01b0382166105305760405163ec442f0560e01b815260006004820152602401610364565b61037760008383610663565b600580546001600160a01b038381166001600160a01b0319831681179093556040519116919082907f8be0079c531659141344cd1fd0a4f28419497f9722a3daafe3b4186f6b6457e090600090a35050565b6001600160a01b0384166105b85760405163e602df0560e01b815260006004820152602401610364565b6001600160a01b0383166105e257604051634a1406b160e11b815260006004820152602401610364565b6001600160a01b038085166000908152600160209081526040808320938716835292905220829055801561047457826001600160a01b0316846001600160a01b03167f8c5be1e5ebec7d5bd14f71427d1e84f3dd0314c0f7b2291e5b200ac8c7c3b9258460405161065591815260200190565b60405180910390a350505050565b6001600160a01b03831661068e57806002600082825461068391906108ec565b909155506107009050565b6001600160a01b038316600090815260208190526040902054818110156106e15760405163391434e360e21b81526001600160a01b03851660048201526024810182905260448101839052606401610364565b6001600160a01b03841660009081526020819052604090209082900390555b6001600160a01b03821661071c5760028054829003905561073b565b6001600160a01b03821660009081526020819052604090208054820190555b816001600160a01b0316836001600160a01b03167fddf252ad1be2c89b69c2b068fc378daa952ba7f163c4a11628f55a4df523b3ef8360405161078091815260200190565b60405180910390a3505050565b600060208083528351808285015260005b818110156107ba5785810183015185820160400152820161079e565b506000604082860101526040601f19601f8301168501019250505092915050565b80356001600160a01b03811681146107f257600080fd5b919050565b6000806040838503121561080a57600080fd5b610813836107db565b946020939093013593505050565b60008060006060848603121561083657600080fd5b61083f846107db565b925061084d602085016107db565b9150604084013590509250925092565b60006020828403121561086f57600080fd5b610878826107db565b9392505050565b6000806040838503121561089257600080fd5b61089b836107db565b91506108a9602084016107db565b90509250929050565b600181811c908216806108c657607f821691505b6020821081036108e657634e487b7160e01b600052602260045260246000fd5b50919050565b808201808211156102db57634e487b7160e01b600052601160045260246000fdfea264697066735822122019374b67df01463ea5e5df8d18d4f7697eac9760d03fa3e05f85737ccd075b1e64736f6c63430008140033",
  "linkReferences": {},
  "deployedLinkReferences": {}
}