{
  "_format": "hh-sol-artifact-1",
  "contractName": "ArtNFT",
  "sourceName": "contracts/ArtNFT.sol",
  "abi": [
    {
      "inputs": [
        {
          "internalType": "address",
          "name": "initialOwner",
          "type": "address"
        }
      ],
      "stateMutability": "nonpayable",
      "type": "constructor"
    },
    {
      "inputs": [],
      "name": "ERC721EnumerableForbiddenBatchMint",
      "type": "error"
    },
    {
      "inputs": [
        {
          "internalType": "address",
          "name": "sender",
          "type": "address"
        },
        {
          "internalType": "uint256",
          "name": "tokenId",
          "type": "uint256"
        },
        {
          "internalType": "address",
          "name": "owner",
          "type": "address"
        }
      ],
      "name": "ERC721IncorrectOwner",
      "type": "error"
    },
    {
      "inputs": [
        {
          "internalType": "address",
          "name": "operator",
          "type": "address"
        },
        {
          "internalType": "uint256",
          "name": "tokenId",
          "type": "uint256"
        }
      ],
      "name": "ERC721InsufficientApproval",
      "type": "error"
    },
    {
      "inputs": [
        {
          "internalType": "address",
          "name": "approver",
          "type": "address"
        }
      ],
      "name": "ERC721InvalidApprover",
      "type": "error"
    },
    {
      "inputs": [
        {
          "internalType": "address",
          "name": "operator",
          "type": "address"
        }
      ],
      "name": "ERC721InvalidOperator",
      "type": "error"
    },
    {
      "inputs": [
        {
          "internalType": "address",
          "name": "owner",
          "type": "address"
        }
      ],
      "name": "ERC721InvalidOwner",
      "type": "error"
    },
    {
      "inputs": [
        {
          "internalType": "address",
          "name": "receiver",
          "type": "address"
        }
      ],
      "name": "ERC721InvalidReceiver",
      "type": "error"
    },
    {
      "inputs": [
        {
          "internalType": "address",
          "name": "sender",
          "type": "address"
        }
      ],
      "name": "ERC721InvalidSender",
      "type": "error"
    },
    {
      "inputs": [
        {
          "internalType": "uint256",
          "name": "tokenId",
          "type": "uint256"
        }
      ],
      "name": "ERC721NonexistentToken",
      "type": "error"
    },
    {
      "inputs": [
        {
          "internalType": "address",
          "name": "owner",
          "type": "address"
        },
        {
          "internalType": "uint256",
          "name": "index",
          "type": "uint256"
        }
      ],
      "name": "ERC721OutOfBoundsIndex",
      "type": "error"
    },
    {
      "inputs": [
        {
          "internalType": "address",
          "name": "owner",
          "type": "address"
        }
      ],
      "name": "OwnableInvalidOwner",
      "type": "error"
    },
    {
      "inputs": [
        {
          "internalType": "address",
          "name": "account",
          "type": "address"
        }
      ],
      "name": "OwnableUnauthorizedAccount",
      "type": "error"
    },
    {
      "inputs": [],
      "name": "ReentrancyGuardReentrantCall",
      "type": "error"
    },
    {
      "anonymous": false,
      "inputs": [
        {
          "indexed": true,
          "internalType": "address",
          "name": "owner",
          "type": "address"
        },
        {
          "indexed": true,
          "internalType": "address",
          "name": "approved",
          "type": "address"
        },
        {
          "indexed": true,
          "internalType": "uint256",
          "name": "tokenId",
          "type": "uint256"
        }
      ],
      "name": "Approval",
      "type": "event"
    },
    {
      "anonymous": false,
      "inputs": [
        {
          "indexed": true,
          "internalType": "address",
          "name": "owner",
          "type": "address"
        },
        {
          "indexed": true,
          "internalType": "address",
          "name": "operator",
          "type": "address"
        },
        {
          "indexed": false,
          "internalType": "bool",
          "name": "approved",
          "type": "bool"
        }
      ],
      "name": "ApprovalForAll",
      "type": "event"
    },
    {
      "anonymous": false,
      "inputs": [
        {
          "indexed": true,
          "internalType": "address",
          "name": "previousOwner",
          "type": "address"
        },
        {
          "indexed": true,
          "internalType": "address",
          "name": "newOwner",
          "type": "address"
        }
      ],
      "name": "OwnershipTransferred",
      "type": "event"
    },
    {
      "anonymous": false,
      "inputs": [
        {
          "indexed": true,
          "internalType": "address",
          "name": "from",
          "type": "address"
        },
        {
          "indexed": true,
          "internalType": "address",
          "name": "to",
          "type": "address"
        },
        {
          "indexed": true,
          "internalType": "uint256",
          "name": "tokenId",
          "type": "uint256"
        }
      ],
      "name": "Transfer",
      "type": "event"
    },
    {
      "inputs": [],
      "name": "MAX_PER_ADDRESS",
      "outputs": [
        {
          "internalType": "uint256",
          "name": "",
          "type": "uint256"
        }
      ],
      "stateMutability": "view",
      "type": "function"
    },
    {
      "inputs": [],
      "name": "MAX_PER_MINT",
      "outputs": [
        {
          "internalType": "uint256",
          "name": "",
          "type": "uint256"
        }
      ],
      "stateMutability": "view",
      "type": "function"
    },
    {
      "inputs": [],
      "name": "MAX_SUPPLY",
      "outputs": [
        {
          "internalType": "uint256",
          "name": "",
          "type": "uint256"
        }
      ],
      "stateMutability": "view",
      "type": "function"
    },
    {
      "inputs": [],
      "name": "MINT_PRICE",
      "outputs": [
        {
          "internalType": "uint256",
          "name": "",
          "type": "uint256"
        }
      ],
      "stateMutability": "view",
      "type": "function"
    },
    {
      "inputs": [
        {
          "internalType": "address",
          "name": "to",
          "type": "address"
        },
        {
          "internalType": "uint256",
          "name": "tokenId",
          "type": "uint256"
        }
      ],
      "name": "approve",
      "outputs": [],
      "stateMutability": "nonpayable",
      "type": "function"
    },
    {
      "inputs": [
        {
          "internalType": "address",
          "name": "owner",
          "type": "address"
        }
      ],
      "name": "balanceOf",
      "outputs": [
        {
          "internalType": "uint256",
          "name": "",
          "type": "uint256"
        }
      ],
      "stateMutability": "view",
      "type": "function"
    },
    {
      "inputs": [
        {
          "internalType": "uint256",
          "name": "tokenId",
          "type": "uint256"
        }
      ],
      "name": "getApproved",
      "outputs": [
        {
          "internalType": "address",
          "name": "",
          "type": "address"
        }
      ],
      "stateMutability": "view",
      "type": "function"
    },
    {
      "inputs": [
        {
          "internalType": "address",
          "name": "owner",
          "type": "address"
        },
        {
          "internalType": "address",
          "name": "operator",
          "type": "address"
        }
      ],
      "name": "isApprovedForAll",
      "outputs": [
        {
          "internalType": "bool",
          "name": "",
          "type": "bool"
        }
      ],
      "stateMutability": "view",
      "type": "function"
    },
    {
      "inputs": [
        {
          "internalType": "uint256",
          "name": "numTokens",
          "type": "uint256"
        }
      ],
      "name": "mint",
      "outputs": [],
      "stateMutability": "payable",
      "type": "function"
    },
    {
      "inputs": [],
      "name": "name",
      "outputs": [
        {
          "internalType": "string",
          "name": "",
          "type": "string"
        }
      ],
      "stateMutability": "view",
      "type": "function"
    },
    {
      "inputs": [],
      "name": "owner",
      "outputs": [
        {
          "internalType": "address",
          "name": "",
          "type": "address"
        }
      ],
      "stateMutability": "view",
      "type": "function"
    },
    {
      "inputs": [
        {
          "internalType": "uint256",
          "name": "tokenId",
          "type": "uint256"
        }
      ],
      "name": "ownerOf",
      "outputs": [
        {
          "internalType": "address",
          "name": "",
          "type": "address"
        }
      ],
      "stateMutability": "view",
      "type": "function"
    },
    {
      "inputs": [],
      "name": "renounceOwnership",
      "outputs": [],
      "stateMutability": "nonpayable",
      "type": "function"
    },
    {
      "inputs": [
        {
          "internalType": "address",
          "name": "from",
          "type": "address"
        },
        {
          "internalType": "address",
          "name": "to",
          "type": "address"
        },
        {
          "internalType": "uint256",
          "name": "tokenId",
          "type": "uint256"
        }
      ],
      "name": "safeTransferFrom",
      "outputs": [],
      "stateMutability": "nonpayable",
      "type": "function"
    },
    {
      "inputs": [
        {
          "internalType": "address",
          "name": "from",
          "type": "address"
        },
        {
          "internalType": "address",
          "name": "to",
          "type": "address"
        },
        {
          "internalType": "uint256",
          "name": "tokenId",
          "type": "uint256"
        },
        {
          "internalType": "bytes",
          "name": "data",
          "type": "bytes"
        }
      ],
      "name": "safeTransferFrom",
      "outputs": [],
      "stateMutability": "nonpayable",
      "type": "function"
    },
    {
      "inputs": [
        {
          "internalType": "address",
          "name": "operator",
          "type": "address"
        },
        {
          "internalType": "bool",
          "name": "approved",
          "type": "bool"
        }
      ],
      "name": "setApprovalForAll",
      "outputs": [],
      "stateMutability": "nonpayable",
      "type": "function"
    },
    {
      "inputs": [
        {
          "internalType": "string",
          "name": "baseURI",
          "type": "string"
        }
      ],
      "name": "setBaseURI",
      "outputs": [],
      "stateMutability": "nonpayable",
      "type": "function"
    },
    {
      "inputs": [
        {
          "internalType": "bytes4",
          "name": "interfaceId",
          "type": "bytes4"
        }
      ],
      "name": "supportsInterface",
      "outputs": [
        {
          "internalType": "bool",
          "name": "",
          "type": "bool"
        }
      ],
      "stateMutability": "view",
      "type": "function"
    },
    {
      "inputs": [],
      "name": "symbol",
      "outputs": [
        {
          "internalType": "string",
          "name": "",
          "type": "string"
        }
      ],
      "stateMutability": "view",
      "type": "function"
    },
    {
      "inputs": [
        {
          "internalType": "uint256",
          "name": "index",
          "type": "uint256"
        }
      ],
      "name": "tokenByIndex",
      "outputs": [
        {
          "internalType": "uint256",
          "name": "",
          "type": "uint256"
        }
      ],
      "stateMutability": "view",
      "type": "function"
    },
    {
      "inputs": [
        {
          "internalType": "address",
          "name": "owner",
          "type": "address"
        },
        {
          "internalType": "uint256",
          "name": "index",
          "type": "uint256"
        }
      ],
      "name": "tokenOfOwnerByIndex",
      "outputs": [
        {
          "internalType": "uint256",
          "name": "",
          "type": "uint256"
        }
      ],
      "stateMutability": "view",
      "type": "function"
    },
    {
      "inputs": [
        {
          "internalType": "uint256",
          "name": "tokenId",
          "type": "uint256"
        }
      ],
      "name": "tokenURI",
      "outputs": [
        {
          "internalType": "string",
          "name": "",
          "type": "string"
        }
      ],
      "stateMutability": "view",
      "type": "function"
    },
    {
      "inputs": [],
      "name": "totalSupply",
      "outputs": [
        {
          "internalType": "uint256",
          "name": "",
          "type": "uint256"
        }
      ],
      "stateMutability": "view",
      "type": "function"
    },
    {
      "inputs": [
        {
          "internalType": "address",
          "name": "from",
          "type": "address"
        },
        {
          "internalType": "address",
          "name": "to",
          "type": "address"
        },
        {
          "internalType": "uint256",
          "name": "tokenId",
          "type": "uint256"
        }
      ],
      "name": "transferFrom",
      "outputs": [],
      "stateMutability": "nonpayable",
      "type": "function"
    },
    {
      "inputs": [
        {
          "internalType": "address",
          "name": "newOwner",
          "type": "address"
        }
      ],
      "name": "transferOwnership",
      "outputs": [],
      "stateMutability": "nonpayable",
      "type": "function"
    },
    {
      "inputs": [],
      "name": "withdraw",
      "outputs": [],
      "stateMutability": "nonpayable",
      "type": "function"
    }
  ],
  "bytecode": "0x60806040523480156200001157600080fd5b5060405162001dac38038062001dac8339810160408190526200003491620001a4565b8060405180604001604052806008815260200167105c9d13919d1cdd60c21b815250604051806040016040528060048152602001631053919560e21b81525081600090816200008491906200027b565b5060016200009382826200027b565b5050506001600160a01b038116620000c657604051631e4fbdf760e01b8152600060048201526024015b60405180910390fd5b620000d18162000105565b506001600b81905550620000fe60405180606001604052806035815260200162001d776035913962000157565b5062000347565b600a80546001600160a01b038381166001600160a01b0319831681179093556040519116919082907f8be0079c531659141344cd1fd0a4f28419497f9722a3daafe3b4186f6b6457e090600090a35050565b6200016162000173565b600c6200016f82826200027b565b5050565b600a546001600160a01b03163314620001a25760405163118cdaa760e01b8152336004820152602401620000bd565b565b600060208284031215620001b757600080fd5b81516001600160a01b0381168114620001cf57600080fd5b9392505050565b634e487b7160e01b600052604160045260246000fd5b600181811c908216806200020157607f821691505b6020821081036200022257634e487b7160e01b600052602260045260246000fd5b50919050565b601f8211156200027657600081815260208120601f850160051c81016020861015620002515750805b601f850160051c820191505b8181101562000272578281556001016200025d565b5050505b505050565b81516001600160401b03811115620002975762000297620001d6565b620002af81620002a88454620001ec565b8462000228565b602080601f831160018114620002e75760008415620002ce5750858301515b600019600386901b1c1916600185901b17855562000272565b600085815260208120601f198616915b828110156200031857888601518255948401946001909101908401620002f7565b5085821015620003375787850151600019600388901b60f8161c191681555b5050505050600190811b01905550565b611a2080620003576000396000f3fe6080604052600436106101815760003560e01c806355f804b3116100d1578063a0712d681161008a578063c002d23d11610064578063c002d23d14610429578063c87b56dd14610444578063e985e9c514610464578063f2fde38b1461048457600080fd5b8063a0712d68146103d6578063a22cb465146103e9578063b88d4fde1461040957600080fd5b806355f804b31461032e5780636352211e1461034e57806370a082311461036e578063715018a61461038e5780638da5cb5b146103a357806395d89b41146103c157600080fd5b806318160ddd1161013e57806332cb6b0c1161011857806332cb6b0c146102c45780633ccfd60b146102d957806342842e0e146102ee5780634f6ccce71461030e57600080fd5b806318160ddd1461026f57806323b872dd146102845780632f745c59146102a457600080fd5b806301ffc9a71461018657806306fdde03146101bb578063081812fc146101dd578063095ea7b31461021557806309d42b30146102375780630aaef2851461025a575b600080fd5b34801561019257600080fd5b506101a66101a13660046114bd565b6104a4565b60405190151581526020015b60405180910390f35b3480156101c757600080fd5b506101d06104cf565b6040516101b29190611527565b3480156101e957600080fd5b506101fd6101f836600461153a565b610561565b6040516001600160a01b0390911681526020016101b2565b34801561022157600080fd5b5061023561023036600461156f565b61058a565b005b34801561024357600080fd5b5061024c600381565b6040519081526020016101b2565b34801561026657600080fd5b5061024c600681565b34801561027b57600080fd5b5060085461024c565b34801561029057600080fd5b5061023561029f366004611599565b610599565b3480156102b057600080fd5b5061024c6102bf36600461156f565b610629565b3480156102d057600080fd5b5061024c606481565b3480156102e557600080fd5b5061023561068e565b3480156102fa57600080fd5b50610235610309366004611599565b61071f565b34801561031a57600080fd5b5061024c61032936600461153a565b61073f565b34801561033a57600080fd5b50610235610349366004611661565b610798565b34801561035a57600080fd5b506101fd61036936600461153a565b6107ac565b34801561037a57600080fd5b5061024c6103893660046116aa565b6107b7565b34801561039a57600080fd5b506102356107ff565b3480156103af57600080fd5b50600a546001600160a01b03166101fd565b3480156103cd57600080fd5b506101d0610813565b6102356103e436600461153a565b610822565b3480156103f557600080fd5b506102356104043660046116c5565b610a47565b34801561041557600080fd5b50610235610424366004611701565b610a52565b34801561043557600080fd5b5061024c66038d7ea4c6800081565b34801561045057600080fd5b506101d061045f36600461153a565b610a69565b34801561047057600080fd5b506101a661047f36600461177d565b610b76565b34801561049057600080fd5b5061023561049f3660046116aa565b610ba4565b60006001600160e01b0319821663780e9d6360e01b14806104c957506104c982610bdf565b92915050565b6060600080546104de906117b0565b80601f016020809104026020016040519081016040528092919081815260200182805461050a906117b0565b80156105575780601f1061052c57610100808354040283529160200191610557565b820191906000526020600020905b81548152906001019060200180831161053a57829003601f168201915b5050505050905090565b600061056c82610c2f565b506000828152600460205260409020546001600160a01b03166104c9565b610595828233610c68565b5050565b6001600160a01b0382166105c857604051633250574960e11b8152600060048201526024015b60405180910390fd5b60006105d5838333610c75565b9050836001600160a01b0316816001600160a01b031614610623576040516364283d7b60e01b81526001600160a01b03808616600483015260248201849052821660448201526064016105bf565b50505050565b6000610634836107b7565b82106106655760405163295f44f760e21b81526001600160a01b0384166004820152602481018390526044016105bf565b506001600160a01b03919091166000908152600660209081526040808320938352929052205490565b610696610d4a565b476106a9600a546001600160a01b031690565b6001600160a01b03166108fc829081150290604051600060405180830381858888f1935050505061071c5760405162461bcd60e51b815260206004820152601a60248201527f4661696c656420746f2077697468647261772062616c616e636500000000000060448201526064016105bf565b50565b61073a83838360405180602001604052806000815250610a52565b505050565b600061074a60085490565b82106107735760405163295f44f760e21b815260006004820152602481018390526044016105bf565b60088281548110610786576107866117ea565b90600052602060002001549050919050565b6107a0610d4a565b600c610595828261184e565b60006104c982610c2f565b60006001600160a01b0382166107e3576040516322718ad960e21b8152600060048201526024016105bf565b506001600160a01b031660009081526003602052604090205490565b610807610d4a565b6108116000610d77565b565b6060600180546104de906117b0565b61082a610dc9565b60008111801561083b575060038111155b61089a5760405162461bcd60e51b815260206004820152602a60248201527f43616e206d696e74206265747765656e203120616e64203320746f6b656e732060448201526930ba1030903a34b6b29760b11b60648201526084016105bf565b6064816108a660085490565b6108b09190611924565b11156109105760405162461bcd60e51b815260206004820152602960248201527f507572636861736520776f756c6420657863656564206d617820737570706c796044820152681037b31027232a399760b91b60648201526084016105bf565b346109228266038d7ea4c68000611937565b11156109705760405162461bcd60e51b815260206004820181905260248201527f45746865722076616c75652073656e74206973206e6f7420636f72726563742e60448201526064016105bf565b60068161097c336107b7565b6109869190611924565b11156109eb5760405162461bcd60e51b815260206004820152602e60248201527f507572636861736520776f756c6420657863656564206d617820616c6c6f776560448201526d32103832b91030b2323932b9b99760911b60648201526084016105bf565b60005b81811015610a3c576000610a0160085490565b610a0c906001611924565b90506064610a1960085490565b1015610a2957610a293382610df3565b5080610a348161194e565b9150506109ee565b5061071c6001600b55565b610595338383610e0d565b610a5d848484610599565b61062384848484610eac565b60606000610a76836107ac565b6001600160a01b031603610ae45760405162461bcd60e51b815260206004820152602f60248201527f4552433732314d657461646174613a2055524920717565727920666f72206e6f60448201526e3732bc34b9ba32b73a103a37b5b2b760891b60648201526084016105bf565b600c8054610af1906117b0565b80601f0160208091040260200160405190810160405280929190818152602001828054610b1d906117b0565b8015610b6a5780601f10610b3f57610100808354040283529160200191610b6a565b820191906000526020600020905b815481529060010190602001808311610b4d57829003601f168201915b50505050509050919050565b6001600160a01b03918216600090815260056020908152604080832093909416825291909152205460ff1690565b610bac610d4a565b6001600160a01b038116610bd657604051631e4fbdf760e01b8152600060048201526024016105bf565b61071c81610d77565b60006001600160e01b031982166380ac58cd60e01b1480610c1057506001600160e01b03198216635b5e139f60e01b145b806104c957506301ffc9a760e01b6001600160e01b03198316146104c9565b6000818152600260205260408120546001600160a01b0316806104c957604051637e27328960e01b8152600481018490526024016105bf565b61073a8383836001610fd5565b600080610c838585856110db565b90506001600160a01b038116610ce057610cdb84600880546000838152600960205260408120829055600182018355919091527ff3f7a9fe364faab93b216da50a3214154f22a0a2b415b23a84c8169e8b636ee30155565b610d03565b846001600160a01b0316816001600160a01b031614610d0357610d0381856111d4565b6001600160a01b038516610d1f57610d1a84611265565b610d42565b846001600160a01b0316816001600160a01b031614610d4257610d428585611314565b949350505050565b600a546001600160a01b031633146108115760405163118cdaa760e01b81523360048201526024016105bf565b600a80546001600160a01b038381166001600160a01b0319831681179093556040519116919082907f8be0079c531659141344cd1fd0a4f28419497f9722a3daafe3b4186f6b6457e090600090a35050565b6002600b5403610dec57604051633ee5aeb560e01b815260040160405180910390fd5b6002600b55565b610595828260405180602001604052806000815250611364565b6001600160a01b038216610e3f57604051630b61174360e31b81526001600160a01b03831660048201526024016105bf565b6001600160a01b03838116600081815260056020908152604080832094871680845294825291829020805460ff191686151590811790915591519182527f17307eab39ab6107e8899845ad3d59bd9653f200f220920489ca2b5937696c31910160405180910390a3505050565b6001600160a01b0383163b1561062357604051630a85bd0160e11b81526001600160a01b0384169063150b7a0290610eee903390889087908790600401611967565b6020604051808303816000875af1925050508015610f29575060408051601f3d908101601f19168201909252610f26918101906119a4565b60015b610f92573d808015610f57576040519150601f19603f3d011682016040523d82523d6000602084013e610f5c565b606091505b508051600003610f8a57604051633250574960e11b81526001600160a01b03851660048201526024016105bf565b805181602001fd5b6001600160e01b03198116630a85bd0160e11b14610fce57604051633250574960e11b81526001600160a01b03851660048201526024016105bf565b5050505050565b8080610fe957506001600160a01b03821615155b156110ab576000610ff984610c2f565b90506001600160a01b038316158015906110255750826001600160a01b0316816001600160a01b031614155b801561103857506110368184610b76565b155b156110615760405163a9fbf51f60e01b81526001600160a01b03841660048201526024016105bf565b81156110a95783856001600160a01b0316826001600160a01b03167f8c5be1e5ebec7d5bd14f71427d1e84f3dd0314c0f7b2291e5b200ac8c7c3b92560405160405180910390a45b505b5050600090815260046020526040902080546001600160a01b0319166001600160a01b0392909216919091179055565b6000828152600260205260408120546001600160a01b03908116908316156111085761110881848661137b565b6001600160a01b0381161561114657611125600085600080610fd5565b6001600160a01b038116600090815260036020526040902080546000190190555b6001600160a01b03851615611175576001600160a01b0385166000908152600360205260409020805460010190555b60008481526002602052604080822080546001600160a01b0319166001600160a01b0389811691821790925591518793918516917fddf252ad1be2c89b69c2b068fc378daa952ba7f163c4a11628f55a4df523b3ef91a4949350505050565b60006111df836107b7565b600083815260076020526040902054909150808214611232576001600160a01b03841660009081526006602090815260408083208584528252808320548484528184208190558352600790915290208190555b5060009182526007602090815260408084208490556001600160a01b039094168352600681528383209183525290812055565b600854600090611277906001906119c1565b6000838152600960205260408120546008805493945090928490811061129f5761129f6117ea565b9060005260206000200154905080600883815481106112c0576112c06117ea565b60009182526020808320909101929092558281526009909152604080822084905585825281205560088054806112f8576112f86119d4565b6001900381819060005260206000200160009055905550505050565b60006001611321846107b7565b61132b91906119c1565b6001600160a01b039093166000908152600660209081526040808320868452825280832085905593825260079052919091209190915550565b61136e83836113df565b61073a6000848484610eac565b611386838383611444565b61073a576001600160a01b0383166113b457604051637e27328960e01b8152600481018290526024016105bf565b60405163177e802f60e01b81526001600160a01b0383166004820152602481018290526044016105bf565b6001600160a01b03821661140957604051633250574960e11b8152600060048201526024016105bf565b600061141783836000610c75565b90506001600160a01b0381161561073a576040516339e3563760e11b8152600060048201526024016105bf565b60006001600160a01b03831615801590610d425750826001600160a01b0316846001600160a01b0316148061147e575061147e8484610b76565b80610d425750506000908152600460205260409020546001600160a01b03908116911614919050565b6001600160e01b03198116811461071c57600080fd5b6000602082840312156114cf57600080fd5b81356114da816114a7565b9392505050565b6000815180845260005b81811015611507576020818501810151868301820152016114eb565b506000602082860101526020601f19601f83011685010191505092915050565b6020815260006114da60208301846114e1565b60006020828403121561154c57600080fd5b5035919050565b80356001600160a01b038116811461156a57600080fd5b919050565b6000806040838503121561158257600080fd5b61158b83611553565b946020939093013593505050565b6000806000606084860312156115ae57600080fd5b6115b784611553565b92506115c560208501611553565b9150604084013590509250925092565b634e487b7160e01b600052604160045260246000fd5b600067ffffffffffffffff80841115611606576116066115d5565b604051601f8501601f19908116603f0116810190828211818310171561162e5761162e6115d5565b8160405280935085815286868601111561164757600080fd5b858560208301376000602087830101525050509392505050565b60006020828403121561167357600080fd5b813567ffffffffffffffff81111561168a57600080fd5b8201601f8101841361169b57600080fd5b610d42848235602084016115eb565b6000602082840312156116bc57600080fd5b6114da82611553565b600080604083850312156116d857600080fd5b6116e183611553565b9150602083013580151581146116f657600080fd5b809150509250929050565b6000806000806080858703121561171757600080fd5b61172085611553565b935061172e60208601611553565b925060408501359150606085013567ffffffffffffffff81111561175157600080fd5b8501601f8101871361176257600080fd5b611771878235602084016115eb565b91505092959194509250565b6000806040838503121561179057600080fd5b61179983611553565b91506117a760208401611553565b90509250929050565b600181811c908216806117c457607f821691505b6020821081036117e457634e487b7160e01b600052602260045260246000fd5b50919050565b634e487b7160e01b600052603260045260246000fd5b601f82111561073a57600081815260208120601f850160051c810160208610156118275750805b601f850160051c820191505b8181101561184657828155600101611833565b505050505050565b815167ffffffffffffffff811115611868576118686115d5565b61187c8161187684546117b0565b84611800565b602080601f8311600181146118b157600084156118995750858301515b600019600386901b1c1916600185901b178555611846565b600085815260208120601f198616915b828110156118e0578886015182559484019460019091019084016118c1565b50858210156118fe5787850151600019600388901b60f8161c191681555b5050505050600190811b01905550565b634e487b7160e01b600052601160045260246000fd5b808201808211156104c9576104c961190e565b80820281158282048414176104c9576104c961190e565b6000600182016119605761196061190e565b5060010190565b6001600160a01b038581168252841660208201526040810183905260806060820181905260009061199a908301846114e1565b9695505050505050565b6000602082840312156119b657600080fd5b81516114da816114a7565b818103818111156104c9576104c961190e565b634e487b7160e01b600052603160045260246000fdfea2646970667358221220682fa127920afb5872c544263fe07f744e735b995e6d1a40b005695ad9d99d7c64736f6c63430008140033697066733a2f2f516d6171796d785a5142746d6457757871634c643261426641427a3479505351424169776447583976433376794c",
  "linkReferences": {},
  "deployedLinkReferences": {}
}